{"abi":[{"type":"constructor","inputs":[{"name":"_attackRegistry","type":"address","internalType":"address"},{"name":"_safeHarbor","type":"address","internalType":"address"},{"name":"_challengeFactory","type":"address","internalType":"address"}],"stateMutability":"nonpayable"},{"type":"function","name":"attackRegistry","inputs":[],"outputs":[{"name":"","type":"address","internalType":"address"}],"stateMutability":"view"},{"type":"function","name":"battles","inputs":[{"name":"","type":"uint256","internalType":"uint256"}],"outputs":[{"name":"","type":"address","internalType":"address"}],"stateMutability":"view"},{"type":"function","name":"challengeFactory","inputs":[],"outputs":[{"name":"","type":"address","internalType":"address"}],"stateMutability":"view"},{"type":"function","name":"claimPrize","inputs":[{"name":"battleId","type":"uint256","internalType":"uint256"}],"outputs":[],"stateMutability":"nonpayable"},{"type":"function","name":"createBattle","inputs":[{"name":"challengeType","type":"address","internalType":"address"},{"name":"entryFee","type":"uint256","internalType":"uint256"},{"name":"maxAgents","type":"uint8","internalType":"uint8"},{"name":"duration","type":"uint256","internalType":"uint256"}],"outputs":[{"name":"battleId","type":"uint256","internalType":"uint256"}],"stateMutability":"payable"},{"type":"function","name":"creatorBattles","inputs":[{"name":"","type":"address","internalType":"address"},{"name":"","type":"uint256","internalType":"uint256"}],"outputs":[{"name":"","type":"uint256","internalType":"uint256"}],"stateMutability":"view"},{"type":"function","name":"getAllBattleIds","inputs":[],"outputs":[{"name":"","type":"uint256[]","internalType":"uint256[]"}],"stateMutability":"view"},{"type":"function","name":"getBattle","inputs":[{"name":"battleId","type":"uint256","internalType":"uint256"}],"outputs":[{"name":"","type":"address","internalType":"address"}],"stateMutability":"view"},{"type":"function","name":"getCreatorBattles","inputs":[{"name":"creator","type":"address","internalType":"address"}],"outputs":[{"name":"","type":"uint256[]","internalType":"uint256[]"}],"stateMutability":"view"},{"type":"function","name":"nextBattleId","inputs":[],"outputs":[{"name":"","type":"uint256","internalType":"uint256"}],"stateMutability":"view"},{"type":"function","name":"owner","inputs":[],"outputs":[{"name":"","type":"address","internalType":"address"}],"stateMutability":"view"},{"type":"function","name":"paused","inputs":[],"outputs":[{"name":"","type":"bool","internalType":"bool"}],"stateMutability":"view"},{"type":"function","name":"registerAgent","inputs":[{"name":"battleId","type":"uint256","internalType":"uint256"},{"name":"agent","type":"address","internalType":"address"}],"outputs":[],"stateMutability":"nonpayable"},{"type":"function","name":"resolveBattle","inputs":[{"name":"battleId","type":"uint256","internalType":"uint256"}],"outputs":[],"stateMutability":"nonpayable"},{"type":"function","name":"safeHarbor","inputs":[],"outputs":[{"name":"","type":"address","internalType":"address"}],"stateMutability":"view"},{"type":"function","name":"setPaused","inputs":[{"name":"_paused","type":"bool","internalType":"bool"}],"outputs":[],"stateMutability":"nonpayable"},{"type":"function","name":"startBattle","inputs":[{"name":"battleId","type":"uint256","internalType":"uint256"}],"outputs":[],"stateMutability":"nonpayable"},{"type":"event","name":"AgentRegistered","inputs":[{"name":"battleId","type":"uint256","indexed":true,"internalType":"uint256"},{"name":"agent","type":"address","indexed":true,"internalType":"address"}],"anonymous":false},{"type":"event","name":"BattleCreated","inputs":[{"name":"battleId","type":"uint256","indexed":true,"internalType":"uint256"},{"name":"challenge","type":"address","indexed":true,"internalType":"address"},{"name":"entryFee","type":"uint256","indexed":false,"internalType":"uint256"},{"name":"maxAgents","type":"uint8","indexed":false,"internalType":"uint8"}],"anonymous":false},{"type":"event","name":"BattleResolved","inputs":[{"name":"battleId","type":"uint256","indexed":true,"internalType":"uint256"},{"name":"winner","type":"address","indexed":true,"internalType":"address"}],"anonymous":false},{"type":"event","name":"BattleStarted","inputs":[{"name":"battleId","type":"uint256","indexed":true,"internalType":"uint256"}],"anonymous":false},{"type":"event","name":"Paused","inputs":[{"name":"paused","type":"bool","indexed":false,"internalType":"bool"}],"anonymous":false}],"bytecode":{"object":"0x60e060405234801561001057600080fd5b5060405162002662380380620026628339810160408190526100319161007c565b600080546001600160a01b031916331790556001600160a01b0392831660805290821660a0521660c0526100bf565b80516001600160a01b038116811461007757600080fd5b919050565b60008060006060848603121561009157600080fd5b61009a84610060565b92506100a860208501610060565b91506100b660408501610060565b90509250925092565b60805160a05160c0516125576200010b600039600081816102230152610b2901526000610162015260008181610396015281816104b7015281816108a90152610c5c01526125576000f3fe6080604052600436106100fe5760003560e01c80636dd0ce7a11610095578063d00cd47f11610064578063d00cd47f14610311578063d709815414610324578063d93705a514610344578063e0b9b11f14610364578063e7a012741461038457600080fd5b80636dd0ce7a1461027b5780637821a2f5146102b15780638da5cb5b146102d15780638e6807f8146102f157600080fd5b806331a6ff66116100d157806331a6ff66146101bc5780635c975abb146101e05780635dbaf68b14610211578063606d2e961461024557600080fd5b8063047d4c2714610103578063067beb431461012557806313f41dd51461015057806316c38b3c1461019c575b600080fd5b34801561010f57600080fd5b5061012361011e366004611026565b6103b8565b005b34801561013157600080fd5b5061013a610617565b6040516101479190611056565b60405180910390f35b34801561015c57600080fd5b506101847f000000000000000000000000000000000000000000000000000000000000000081565b6040516001600160a01b039091168152602001610147565b3480156101a857600080fd5b506101236101b73660046110a8565b6106a5565b3480156101c857600080fd5b506101d260015481565b604051908152602001610147565b3480156101ec57600080fd5b5060005461020190600160a01b900460ff1681565b6040519015158152602001610147565b34801561021d57600080fd5b506101847f000000000000000000000000000000000000000000000000000000000000000081565b34801561025157600080fd5b506101846102603660046110cc565b6002602052600090815260409020546001600160a01b031681565b34801561028757600080fd5b506101846102963660046110cc565b6000908152600260205260409020546001600160a01b031690565b3480156102bd57600080fd5b5061013a6102cc3660046110e5565b610744565b3480156102dd57600080fd5b50600054610184906001600160a01b031681565b3480156102fd57600080fd5b5061012361030c3660046110cc565b6107b0565b6101d261031f366004611102565b6109e5565b34801561033057600080fd5b5061012361033f3660046110cc565b610dd5565b34801561035057600080fd5b5061012361035f3660046110cc565b610e70565b34801561037057600080fd5b506101d261037f366004611150565b610fd0565b34801561039057600080fd5b506101847f000000000000000000000000000000000000000000000000000000000000000081565b600054600160a01b900460ff16156103eb5760405162461bcd60e51b81526004016103e29061117c565b60405180910390fd5b6000828152600260205260409020546001600160a01b031661041f5760405162461bcd60e51b81526004016103e2906111a5565b6000828152600260209081526040808320548151630759014f60e41b815291516001600160a01b039091169263759014f092600480820193918290030181865afa158015610471573d6000803e3d6000fd5b505050506040513d601f19601f8201168201806040525081019061049591906111cf565b6040516343c09d7d60e11b81526001600160a01b0380831660048301529192507f0000000000000000000000000000000000000000000000000000000000000000909116906387813afa90602401602060405180830381865afa158015610500573d6000803e3d6000fd5b505050506040513d601f19601f8201168201806040525081019061052491906111ec565b6105705760405162461bcd60e51b815260206004820152601c60248201527f4368616c6c656e6765206e6f7420696e2061747461636b206d6f64650000000060448201526064016103e2565b6000838152600260205260409081902054905163306b9bb960e01b81526001600160a01b0384811660048301529091169063306b9bb990602401600060405180830381600087803b1580156105c457600080fd5b505af11580156105d8573d6000803e3d6000fd5b50506040516001600160a01b03851692508591507fba9d3be5149ecab5ff8e380633795e5d9153c2f0e1ec952dd1de4611d661c9f590600090a3505050565b6060600060015467ffffffffffffffff81111561063657610636611209565b60405190808252806020026020018201604052801561065f578160200160208202803683370190505b50905060005b60015481101561069f57808282815181106106825761068261121f565b6020908102919091010152806106978161124b565b915050610665565b50919050565b6000546001600160a01b031633146106ec5760405162461bcd60e51b815260206004820152600a60248201526927b7363c9037bbb732b960b11b60448201526064016103e2565b60008054821515600160a01b0260ff60a01b199091161790556040517f0e2fb031ee032dc02d8011dc50b816eb450cf856abd8261680dac74f72165bd29061073990831515815260200190565b60405180910390a150565b6001600160a01b0381166000908152600360209081526040918290208054835181840281018401909452808452606093928301828280156107a457602002820191906000526020600020905b815481526020019060010190808311610790575b50505050509050919050565b600054600160a01b900460ff16156107da5760405162461bcd60e51b81526004016103e29061117c565b6000818152600260205260409020546001600160a01b031661080e5760405162461bcd60e51b81526004016103e2906111a5565b6000818152600260209081526040808320548151630759014f60e41b815291516001600160a01b039091169392849263759014f092600480830193928290030181865afa158015610863573d6000803e3d6000fd5b505050506040513d601f19601f8201168201806040525081019061088791906111cf565b6040516343c09d7d60e11b81526001600160a01b0380831660048301529192507f0000000000000000000000000000000000000000000000000000000000000000909116906387813afa90602401602060405180830381865afa1580156108f2573d6000803e3d6000fd5b505050506040513d601f19601f8201168201806040525081019061091691906111ec565b6109625760405162461bcd60e51b815260206004820152601c60248201527f4368616c6c656e6765206e6f7420696e2061747461636b206d6f64650000000060448201526064016103e2565b816001600160a01b031663240a2c976040518163ffffffff1660e01b8152600401600060405180830381600087803b15801561099d57600080fd5b505af11580156109b1573d6000803e3d6000fd5b50506040518592507f9a02cac07671e80638a2bd9ec5e274cc02bd2d1d52552751695dc8ad623441909150600090a2505050565b60008054600160a01b900460ff1615610a105760405162461bcd60e51b81526004016103e29061117c565b83341015610a595760405162461bcd60e51b8152602060048201526016602482015275496e73756666696369656e7420656e7472792066656560501b60448201526064016103e2565b60028360ff1610158015610a715750600a8360ff1611155b610ab35760405162461bcd60e51b8152602060048201526013602482015272125b9d985b1a59081859d95b9d0818dbdd5b9d606a1b60448201526064016103e2565b610e108210158015610ac8575062093a808211155b610b075760405162461bcd60e51b815260206004820152601060248201526f24b73b30b634b210323ab930ba34b7b760811b60448201526064016103e2565b6040516326ee01b160e21b81526001600160a01b0386811660048301526000917f000000000000000000000000000000000000000000000000000000000000000090911690639bb806c4906024016020604051808303816000875af1158015610b74573d6000803e3d6000fd5b505050506040513d601f19601f82011682018060405250810190610b9891906111cf565b90506000816001600160a01b03163460405160006040518083038185875af1925050503d8060008114610be7576040519150601f19603f3d011682016040523d82523d6000602084013e610bec565b606091505b5050905080610c3d5760405162461bcd60e51b815260206004820152601860248201527f4368616c6c656e67652066756e64696e67206661696c6564000000000000000060448201526064016103e2565b604051630562698d60e11b81526001600160a01b0383811660048301527f00000000000000000000000000000000000000000000000000000000000000001690630ac4d31a90602401600060405180830381600087803b158015610ca057600080fd5b505af1158015610cb4573d6000803e3d6000fd5b505060018054925090506000610cc98361124b565b9091555092506000828787610cde8842611264565b33604051610ceb90611001565b6001600160a01b039586168152602081019490945260ff9092166040840152606083015291909116608082015260a001604051809103906000f080158015610d37573d6000803e3d6000fd5b50600085815260026020908152604080832080546001600160a01b0319166001600160a01b03868116919091179091553384526003835281842080546001810182559085529383902090930188905580518b815260ff8b16928101929092529293509085169186917f04eb289f4f987f7cfc6dabfb6ccea9a32bd7d39f2e413d0b4d59bcce2a332aba910160405180910390a3505050949350505050565b6000818152600260205260409020546001600160a01b0316610e095760405162461bcd60e51b81526004016103e2906111a5565b6000818152600260205260408082205481516370740ac960e01b815291516001600160a01b03909116926370740ac9926004808201939182900301818387803b158015610e5557600080fd5b505af1158015610e69573d6000803e3d6000fd5b5050505050565b600054600160a01b900460ff1615610e9a5760405162461bcd60e51b81526004016103e29061117c565b6000818152600260205260409020546001600160a01b0316610ece5760405162461bcd60e51b81526004016103e2906111a5565b600081815260026020526040808220548151639186156f60e01b815291516001600160a01b03909116928392639186156f926004808301939282900301818387803b158015610f1c57600080fd5b505af1158015610f30573d6000803e3d6000fd5b50505050806001600160a01b0316638e7ea5b26040518163ffffffff1660e01b8152600401602060405180830381865afa158015610f72573d6000803e3d6000fd5b505050506040513d601f19601f82011682018060405250810190610f9691906111cf565b6001600160a01b0316827fe06d6ffff0b790827866bc2bc7fd5ee3c9247ef1dbab18cc722c7c528cb9463460405160405180910390a35050565b60036020528160005260406000208181548110610fec57600080fd5b90600052602060002001600091509150505481565b6112a48061127e83390190565b6001600160a01b038116811461102357600080fd5b50565b6000806040838503121561103957600080fd5b82359150602083013561104b8161100e565b809150509250929050565b6020808252825182820181905260009190848201906040850190845b8181101561108e57835183529284019291840191600101611072565b50909695505050505050565b801515811461102357600080fd5b6000602082840312156110ba57600080fd5b81356110c58161109a565b9392505050565b6000602082840312156110de57600080fd5b5035919050565b6000602082840312156110f757600080fd5b81356110c58161100e565b6000806000806080858703121561111857600080fd5b84356111238161100e565b935060208501359250604085013560ff8116811461114057600080fd5b9396929550929360600135925050565b6000806040838503121561116357600080fd5b823561116e8161100e565b946020939093013593505050565b6020808252600f908201526e10dbdb9d1c9858dd081c185d5cd959608a1b604082015260600190565b60208082526010908201526f10985d1d1b19481b9bdd08199bdd5b9960821b604082015260600190565b6000602082840312156111e157600080fd5b81516110c58161100e565b6000602082840312156111fe57600080fd5b81516110c58161109a565b634e487b7160e01b600052604160045260246000fd5b634e487b7160e01b600052603260045260246000fd5b634e487b7160e01b600052601160045260246000fd5b60006001820161125d5761125d611235565b5060010190565b8082018082111561127757611277611235565b9291505056fe61012060405234801561001157600080fd5b506040516112a43803806112a48339810160408190526100309161007c565b6001600160a01b0394851660805260a09390935260c052503360e05216610100526001805460ff191690556100dc565b80516001600160a01b038116811461007757600080fd5b919050565b600080600080600060a0868803121561009457600080fd5b61009d86610060565b945060208601519350604086015160ff811681146100ba57600080fd5b606087015190935091506100d060808701610060565b90509295509295909350565b60805160a05160c05160e0516101005161114561015f6000396000818161012b0152610a140152600081816103d501528181610402015281816105180152610b2d0152600081816101f60152610ba30152600061017c0152600081816102bc0152818161035a01528181610c7101528181610cd20152610d6801526111456000f3fe60806040526004361061010d5760003560e01c8063759014f011610095578063c19d93fb11610064578063c19d93fb1461032e578063d2ef739814610348578063dfbf53ae1461037c578063eac3fda4146103a1578063fd3705f9146103c357600080fd5b8063759014f0146102ad5780638e7ea5b2146102e05780639186156f1461030357806398f22c121461031857600080fd5b806329dcb0cf116100dc57806329dcb0cf146101e4578063306b9bb914610218578063513856c81461023857806370740ac91461025857806373b2e80e1461026d57600080fd5b806302d05d3f14610119578063072ea61c1461016a5780631865c57d146101ac578063240a2c97146101cd57600080fd5b3661011457005b600080fd5b34801561012557600080fd5b5061014d7f000000000000000000000000000000000000000000000000000000000000000081565b6040516001600160a01b0390911681526020015b60405180910390f35b34801561017657600080fd5b5061019e7f000000000000000000000000000000000000000000000000000000000000000081565b604051908152602001610161565b3480156101b857600080fd5b5060015460ff165b6040516101619190610ee2565b3480156101d957600080fd5b506101e26103f7565b005b3480156101f057600080fd5b5061019e7f000000000000000000000000000000000000000000000000000000000000000081565b34801561022457600080fd5b506101e2610233366004610f22565b61050d565b34801561024457600080fd5b5061014d610253366004610f46565b6106fd565b34801561026457600080fd5b506101e2610727565b34801561027957600080fd5b5061029d610288366004610f22565b60036020526000908152604090205460ff1681565b6040519015158152602001610161565b3480156102b957600080fd5b507f000000000000000000000000000000000000000000000000000000000000000061014d565b3480156102ec57600080fd5b5060015461010090046001600160a01b031661014d565b34801561030f57600080fd5b506101e2610b22565b34801561032457600080fd5b5061019e60025481565b34801561033a57600080fd5b506001546101c09060ff1681565b34801561035457600080fd5b5061014d7f000000000000000000000000000000000000000000000000000000000000000081565b34801561038857600080fd5b5060015461014d9061010090046001600160a01b031681565b3480156103ad57600080fd5b506103b6610e6a565b6040516101619190610f5f565b3480156103cf57600080fd5b5061014d7f000000000000000000000000000000000000000000000000000000000000000081565b336001600160a01b037f000000000000000000000000000000000000000000000000000000000000000016146104485760405162461bcd60e51b815260040161043f90610fac565b60405180910390fd5b60008060015460ff16600481111561046257610462610ecc565b1461047f5760405162461bcd60e51b815260040161043f90610fd0565b600054600211156104cb5760405162461bcd60e51b81526020600482015260166024820152754e656564206174206c656173742032206167656e747360501b604482015260640161043f565b6001805460ff1916811790556040514281527f9a02cac07671e80638a2bd9ec5e274cc02bd2d1d52552751695dc8ad623441909060200160405180910390a150565b336001600160a01b037f000000000000000000000000000000000000000000000000000000000000000016146105555760405162461bcd60e51b815260040161043f90610fac565b60008060015460ff16600481111561056f5761056f610ecc565b1461058c5760405162461bcd60e51b815260040161043f90610fd0565b600054600a116105d35760405162461bcd60e51b815260206004820152601260248201527113585e081859d95b9d1cc81c995858da195960721b604482015260640161043f565b60006001600160a01b0316826001600160a01b0316638da5cb5b6040518163ffffffff1660e01b8152600401602060405180830381865afa15801561061c573d6000803e3d6000fd5b505050506040513d601f19601f820116820180604052508101906106409190610ff7565b6001600160a01b0316036106865760405162461bcd60e51b815260206004820152600d60248201526c125b9d985b1a59081859d95b9d609a1b604482015260640161043f565b600080546001810182558180527f290decd9548b62a8d60345a988386fc84ba6bc95484008f6362f93160ef3e5630180546001600160a01b0319166001600160a01b03851690811790915560405190917f82d0829d9d481e4cb9913897f9b9c903271c4db68c7b3324071d2a7e3b2c5ff091a25050565b6000818154811061070d57600080fd5b6000918252602090912001546001600160a01b0316905081565b60038060015460ff16600481111561074157610741610ecc565b1461075e5760405162461bcd60e51b815260040161043f90610fd0565b60015461010090046001600160a01b0316331480610801575060018054906101000a90046001600160a01b03166001600160a01b0316638da5cb5b6040518163ffffffff1660e01b8152600401602060405180830381865afa1580156107c8573d6000803e3d6000fd5b505050506040513d601f19601f820116820180604052508101906107ec9190610ff7565b6001600160a01b0316336001600160a01b0316145b61083a5760405162461bcd60e51b815260206004820152600a6024820152692737ba103bb4b73732b960b11b604482015260640161043f565b60015461010090046001600160a01b031660009081526003602052604090205460ff161561089c5760405162461bcd60e51b815260206004820152600f60248201526e105b1c9958591e4818db185a5b5959608a1b604482015260640161043f565b600180546001600160a01b03610100909104166000908152600360205260408120805460ff19908116841790915582541660041790915560646108e047604661102a565b6108ea9190611047565b905060006108f88247611069565b9050600060018054906101000a90046001600160a01b03166001600160a01b0316638da5cb5b6040518163ffffffff1660e01b8152600401602060405180830381865afa15801561094d573d6000803e3d6000fd5b505050506040513d601f19601f820116820180604052508101906109719190610ff7565b6001600160a01b03168360405160006040518083038185875af1925050503d80600081146109bb576040519150601f19603f3d011682016040523d82523d6000602084013e6109c0565b606091505b5050905080610a0a5760405162461bcd60e51b815260206004820152601660248201527515da5b9b995c881d1c985b9cd9995c8819985a5b195960521b604482015260640161043f565b8115610ad55760007f00000000000000000000000000000000000000000000000000000000000000006001600160a01b03168360405160006040518083038185875af1925050503d8060008114610a7d576040519150601f19603f3d011682016040523d82523d6000602084013e610a82565b606091505b5050905080610ad35760405162461bcd60e51b815260206004820152601760248201527f43726561746f72207472616e73666572206661696c6564000000000000000000604482015260640161043f565b505b6001546040518481526101009091046001600160a01b0316907f95681e512bc0fe659e195e06c283eada494316f3d801213e48e7101af92bf770906020015b60405180910390a250505050565b336001600160a01b037f00000000000000000000000000000000000000000000000000000000000000001614610b6a5760405162461bcd60e51b815260040161043f90610fac565b60018060015460ff166004811115610b8457610b84610ecc565b14610ba15760405162461bcd60e51b815260040161043f90610fd0565b7f0000000000000000000000000000000000000000000000000000000000000000421015610c075760405162461bcd60e51b8152602060048201526013602482015272426174746c65207374696c6c2061637469766560681b604482015260640161043f565b6001805460ff19166002179055600080548190819067ffffffffffffffff811115610c3457610c3461107c565b604051908082528060200260200182016040528015610c5d578160200160208202803683370190505b50905060005b600054811015610dfb5760007f00000000000000000000000000000000000000000000000000000000000000006001600160a01b031631905060008281548110610caf57610caf611092565b60009182526020909120015460405163680c6d9f60e11b81526001600160a01b037f0000000000000000000000000000000000000000000000000000000000000000811660048301529091169063d018db3e90602401600060405180830381600087803b158015610d1f57600080fd5b505af1925050508015610d30575060015b610d59576000838381518110610d4857610d48611092565b602002602001018181525050610de8565b6000610d8f6001600160a01b037f0000000000000000000000000000000000000000000000000000000000000000163183611069565b905080848481518110610da457610da4611092565b60200260200101818152505084811115610de65780945060008381548110610dce57610dce611092565b6000918252602090912001546001600160a01b031695505b505b5080610df3816110a8565b915050610c63565b5060018054600284905560ff196001600160a01b03868116610100908102929092166001600160a81b03199093169290921760031792839055604051920416907fedb086e56243dd8cd68769a69e32ed35cf8133c1b9b501af024f4365930737e090610b1490859085906110c1565b60606000805480602002602001604051908101604052809291908181526020018280548015610ec257602002820191906000526020600020905b81546001600160a01b03168152600190910190602001808311610ea4575b5050505050905090565b634e487b7160e01b600052602160045260246000fd5b6020810160058310610f0457634e487b7160e01b600052602160045260246000fd5b91905290565b6001600160a01b0381168114610f1f57600080fd5b50565b600060208284031215610f3457600080fd5b8135610f3f81610f0a565b9392505050565b600060208284031215610f5857600080fd5b5035919050565b6020808252825182820181905260009190848201906040850190845b81811015610fa05783516001600160a01b031683529284019291840191600101610f7b565b50909695505050505050565b6020808252600a90820152694f6e6c79206172656e6160b01b604082015260600190565b6020808252600d908201526c496e76616c696420737461746560981b604082015260600190565b60006020828403121561100957600080fd5b8151610f3f81610f0a565b634e487b7160e01b600052601160045260246000fd5b808202811582820484141761104157611041611014565b92915050565b60008261106457634e487b7160e01b600052601260045260246000fd5b500490565b8181038181111561104157611041611014565b634e487b7160e01b600052604160045260246000fd5b634e487b7160e01b600052603260045260246000fd5b6000600182016110ba576110ba611014565b5060010190565b6000604082018483526020604081850152818551808452606086019150828701935060005b81811015611102578451835293830193918301916001016110e6565b509097965050505050505056fea2646970667358221220022c0c137b8079962c51b242dda0feed6f7831115a1799cfac4cc19c38567aab64736f6c63430008130033a264697066735822122020986251c51109f08f0c5961053768248006189e6803d2fc22f69dfd4ba1db5c64736f6c63430008130033","linkReferences":{}},"methodIdentifiers":{"attackRegistry()":"e7a01274","battles(uint256)":"606d2e96","challengeFactory()":"5dbaf68b","claimPrize(uint256)":"d7098154","createBattle(address,uint256,uint8,uint256)":"d00cd47f","creatorBattles(address,uint256)":"e0b9b11f","getAllBattleIds()":"067beb43","getBattle(uint256)":"6dd0ce7a","getCreatorBattles(address)":"7821a2f5","nextBattleId()":"31a6ff66","owner()":"8da5cb5b","paused()":"5c975abb","registerAgent(uint256,address)":"047d4c27","resolveBattle(uint256)":"d93705a5","safeHarbor()":"13f41dd5","setPaused(bool)":"16c38b3c","startBattle(uint256)":"8e6807f8"},"id":21}