{"abi":[{"type":"constructor","inputs":[{"name":"_challenge","type":"address","internalType":"address"},{"name":"_entryFee","type":"uint256","internalType":"uint256"},{"name":"_maxAgents","type":"uint8","internalType":"uint8"},{"name":"_deadline","type":"uint256","internalType":"uint256"},{"name":"_creator","type":"address","internalType":"address"}],"stateMutability":"nonpayable"},{"type":"receive","stateMutability":"payable"},{"type":"function","name":"agents","inputs":[{"name":"","type":"uint256","internalType":"uint256"}],"outputs":[{"name":"","type":"address","internalType":"address"}],"stateMutability":"view"},{"type":"function","name":"arena","inputs":[],"outputs":[{"name":"","type":"address","internalType":"address"}],"stateMutability":"view"},{"type":"function","name":"challenge","inputs":[],"outputs":[{"name":"","type":"address","internalType":"address"}],"stateMutability":"view"},{"type":"function","name":"claimPrize","inputs":[],"outputs":[],"stateMutability":"nonpayable"},{"type":"function","name":"creator","inputs":[],"outputs":[{"name":"","type":"address","internalType":"address"}],"stateMutability":"view"},{"type":"function","name":"deadline","inputs":[],"outputs":[{"name":"","type":"uint256","internalType":"uint256"}],"stateMutability":"view"},{"type":"function","name":"entryFee","inputs":[],"outputs":[{"name":"","type":"uint256","internalType":"uint256"}],"stateMutability":"view"},{"type":"function","name":"getAgents","inputs":[],"outputs":[{"name":"","type":"address[]","internalType":"address[]"}],"stateMutability":"view"},{"type":"function","name":"getChallenge","inputs":[],"outputs":[{"name":"","type":"address","internalType":"address"}],"stateMutability":"view"},{"type":"function","name":"getState","inputs":[],"outputs":[{"name":"","type":"uint8","internalType":"enum IBattle.BattleState"}],"stateMutability":"view"},{"type":"function","name":"getWinner","inputs":[],"outputs":[{"name":"","type":"address","internalType":"address"}],"stateMutability":"view"},{"type":"function","name":"hasClaimed","inputs":[{"name":"","type":"address","internalType":"address"}],"outputs":[{"name":"","type":"bool","internalType":"bool"}],"stateMutability":"view"},{"type":"function","name":"registerAgent","inputs":[{"name":"agent","type":"address","internalType":"address"}],"outputs":[],"stateMutability":"nonpayable"},{"type":"function","name":"resolveBattle","inputs":[],"outputs":[],"stateMutability":"nonpayable"},{"type":"function","name":"startBattle","inputs":[],"outputs":[],"stateMutability":"nonpayable"},{"type":"function","name":"state","inputs":[],"outputs":[{"name":"","type":"uint8","internalType":"enum IBattle.BattleState"}],"stateMutability":"view"},{"type":"function","name":"winner","inputs":[],"outputs":[{"name":"","type":"address","internalType":"address"}],"stateMutability":"view"},{"type":"function","name":"winningAmount","inputs":[],"outputs":[{"name":"","type":"uint256","internalType":"uint256"}],"stateMutability":"view"},{"type":"event","name":"AgentRegistered","inputs":[{"name":"agent","type":"address","indexed":true,"internalType":"address"}],"anonymous":false},{"type":"event","name":"BattleResolved","inputs":[{"name":"winner","type":"address","indexed":true,"internalType":"address"},{"name":"winningAmount","type":"uint256","indexed":false,"internalType":"uint256"},{"name":"extractions","type":"uint256[]","indexed":false,"internalType":"uint256[]"}],"anonymous":false},{"type":"event","name":"BattleStarted","inputs":[{"name":"timestamp","type":"uint256","indexed":false,"internalType":"uint256"}],"anonymous":false},{"type":"event","name":"PrizeClaimed","inputs":[{"name":"winner","type":"address","indexed":true,"internalType":"address"},{"name":"amount","type":"uint256","indexed":false,"internalType":"uint256"}],"anonymous":false}],"bytecode":{"object":"0x61012060405234801561001157600080fd5b506040516112a43803806112a48339810160408190526100309161007c565b6001600160a01b0394851660805260a09390935260c052503360e05216610100526001805460ff191690556100dc565b80516001600160a01b038116811461007757600080fd5b919050565b600080600080600060a0868803121561009457600080fd5b61009d86610060565b945060208601519350604086015160ff811681146100ba57600080fd5b606087015190935091506100d060808701610060565b90509295509295909350565b60805160a05160c05160e0516101005161114561015f6000396000818161012b0152610a140152600081816103d501528181610402015281816105180152610b2d0152600081816101f60152610ba30152600061017c0152600081816102bc0152818161035a01528181610c7101528181610cd20152610d6801526111456000f3fe60806040526004361061010d5760003560e01c8063759014f011610095578063c19d93fb11610064578063c19d93fb1461032e578063d2ef739814610348578063dfbf53ae1461037c578063eac3fda4146103a1578063fd3705f9146103c357600080fd5b8063759014f0146102ad5780638e7ea5b2146102e05780639186156f1461030357806398f22c121461031857600080fd5b806329dcb0cf116100dc57806329dcb0cf146101e4578063306b9bb914610218578063513856c81461023857806370740ac91461025857806373b2e80e1461026d57600080fd5b806302d05d3f14610119578063072ea61c1461016a5780631865c57d146101ac578063240a2c97146101cd57600080fd5b3661011457005b600080fd5b34801561012557600080fd5b5061014d7f000000000000000000000000000000000000000000000000000000000000000081565b6040516001600160a01b0390911681526020015b60405180910390f35b34801561017657600080fd5b5061019e7f000000000000000000000000000000000000000000000000000000000000000081565b604051908152602001610161565b3480156101b857600080fd5b5060015460ff165b6040516101619190610ee2565b3480156101d957600080fd5b506101e26103f7565b005b3480156101f057600080fd5b5061019e7f000000000000000000000000000000000000000000000000000000000000000081565b34801561022457600080fd5b506101e2610233366004610f22565b61050d565b34801561024457600080fd5b5061014d610253366004610f46565b6106fd565b34801561026457600080fd5b506101e2610727565b34801561027957600080fd5b5061029d610288366004610f22565b60036020526000908152604090205460ff1681565b6040519015158152602001610161565b3480156102b957600080fd5b507f000000000000000000000000000000000000000000000000000000000000000061014d565b3480156102ec57600080fd5b5060015461010090046001600160a01b031661014d565b34801561030f57600080fd5b506101e2610b22565b34801561032457600080fd5b5061019e60025481565b34801561033a57600080fd5b506001546101c09060ff1681565b34801561035457600080fd5b5061014d7f000000000000000000000000000000000000000000000000000000000000000081565b34801561038857600080fd5b5060015461014d9061010090046001600160a01b031681565b3480156103ad57600080fd5b506103b6610e6a565b6040516101619190610f5f565b3480156103cf57600080fd5b5061014d7f000000000000000000000000000000000000000000000000000000000000000081565b336001600160a01b037f000000000000000000000000000000000000000000000000000000000000000016146104485760405162461bcd60e51b815260040161043f90610fac565b60405180910390fd5b60008060015460ff16600481111561046257610462610ecc565b1461047f5760405162461bcd60e51b815260040161043f90610fd0565b600054600211156104cb5760405162461bcd60e51b81526020600482015260166024820152754e656564206174206c656173742032206167656e747360501b604482015260640161043f565b6001805460ff1916811790556040514281527f9a02cac07671e80638a2bd9ec5e274cc02bd2d1d52552751695dc8ad623441909060200160405180910390a150565b336001600160a01b037f000000000000000000000000000000000000000000000000000000000000000016146105555760405162461bcd60e51b815260040161043f90610fac565b60008060015460ff16600481111561056f5761056f610ecc565b1461058c5760405162461bcd60e51b815260040161043f90610fd0565b600054600a116105d35760405162461bcd60e51b815260206004820152601260248201527113585e081859d95b9d1cc81c995858da195960721b604482015260640161043f565b60006001600160a01b0316826001600160a01b0316638da5cb5b6040518163ffffffff1660e01b8152600401602060405180830381865afa15801561061c573d6000803e3d6000fd5b505050506040513d601f19601f820116820180604052508101906106409190610ff7565b6001600160a01b0316036106865760405162461bcd60e51b815260206004820152600d60248201526c125b9d985b1a59081859d95b9d609a1b604482015260640161043f565b600080546001810182558180527f290decd9548b62a8d60345a988386fc84ba6bc95484008f6362f93160ef3e5630180546001600160a01b0319166001600160a01b03851690811790915560405190917f82d0829d9d481e4cb9913897f9b9c903271c4db68c7b3324071d2a7e3b2c5ff091a25050565b6000818154811061070d57600080fd5b6000918252602090912001546001600160a01b0316905081565b60038060015460ff16600481111561074157610741610ecc565b1461075e5760405162461bcd60e51b815260040161043f90610fd0565b60015461010090046001600160a01b0316331480610801575060018054906101000a90046001600160a01b03166001600160a01b0316638da5cb5b6040518163ffffffff1660e01b8152600401602060405180830381865afa1580156107c8573d6000803e3d6000fd5b505050506040513d601f19601f820116820180604052508101906107ec9190610ff7565b6001600160a01b0316336001600160a01b0316145b61083a5760405162461bcd60e51b815260206004820152600a6024820152692737ba103bb4b73732b960b11b604482015260640161043f565b60015461010090046001600160a01b031660009081526003602052604090205460ff161561089c5760405162461bcd60e51b815260206004820152600f60248201526e105b1c9958591e4818db185a5b5959608a1b604482015260640161043f565b600180546001600160a01b03610100909104166000908152600360205260408120805460ff19908116841790915582541660041790915560646108e047604661102a565b6108ea9190611047565b905060006108f88247611069565b9050600060018054906101000a90046001600160a01b03166001600160a01b0316638da5cb5b6040518163ffffffff1660e01b8152600401602060405180830381865afa15801561094d573d6000803e3d6000fd5b505050506040513d601f19601f820116820180604052508101906109719190610ff7565b6001600160a01b03168360405160006040518083038185875af1925050503d80600081146109bb576040519150601f19603f3d011682016040523d82523d6000602084013e6109c0565b606091505b5050905080610a0a5760405162461bcd60e51b815260206004820152601660248201527515da5b9b995c881d1c985b9cd9995c8819985a5b195960521b604482015260640161043f565b8115610ad55760007f00000000000000000000000000000000000000000000000000000000000000006001600160a01b03168360405160006040518083038185875af1925050503d8060008114610a7d576040519150601f19603f3d011682016040523d82523d6000602084013e610a82565b606091505b5050905080610ad35760405162461bcd60e51b815260206004820152601760248201527f43726561746f72207472616e73666572206661696c6564000000000000000000604482015260640161043f565b505b6001546040518481526101009091046001600160a01b0316907f95681e512bc0fe659e195e06c283eada494316f3d801213e48e7101af92bf770906020015b60405180910390a250505050565b336001600160a01b037f00000000000000000000000000000000000000000000000000000000000000001614610b6a5760405162461bcd60e51b815260040161043f90610fac565b60018060015460ff166004811115610b8457610b84610ecc565b14610ba15760405162461bcd60e51b815260040161043f90610fd0565b7f0000000000000000000000000000000000000000000000000000000000000000421015610c075760405162461bcd60e51b8152602060048201526013602482015272426174746c65207374696c6c2061637469766560681b604482015260640161043f565b6001805460ff19166002179055600080548190819067ffffffffffffffff811115610c3457610c3461107c565b604051908082528060200260200182016040528015610c5d578160200160208202803683370190505b50905060005b600054811015610dfb5760007f00000000000000000000000000000000000000000000000000000000000000006001600160a01b031631905060008281548110610caf57610caf611092565b60009182526020909120015460405163680c6d9f60e11b81526001600160a01b037f0000000000000000000000000000000000000000000000000000000000000000811660048301529091169063d018db3e90602401600060405180830381600087803b158015610d1f57600080fd5b505af1925050508015610d30575060015b610d59576000838381518110610d4857610d48611092565b602002602001018181525050610de8565b6000610d8f6001600160a01b037f0000000000000000000000000000000000000000000000000000000000000000163183611069565b905080848481518110610da457610da4611092565b60200260200101818152505084811115610de65780945060008381548110610dce57610dce611092565b6000918252602090912001546001600160a01b031695505b505b5080610df3816110a8565b915050610c63565b5060018054600284905560ff196001600160a01b03868116610100908102929092166001600160a81b03199093169290921760031792839055604051920416907fedb086e56243dd8cd68769a69e32ed35cf8133c1b9b501af024f4365930737e090610b1490859085906110c1565b60606000805480602002602001604051908101604052809291908181526020018280548015610ec257602002820191906000526020600020905b81546001600160a01b03168152600190910190602001808311610ea4575b5050505050905090565b634e487b7160e01b600052602160045260246000fd5b6020810160058310610f0457634e487b7160e01b600052602160045260246000fd5b91905290565b6001600160a01b0381168114610f1f57600080fd5b50565b600060208284031215610f3457600080fd5b8135610f3f81610f0a565b9392505050565b600060208284031215610f5857600080fd5b5035919050565b6020808252825182820181905260009190848201906040850190845b81811015610fa05783516001600160a01b031683529284019291840191600101610f7b565b50909695505050505050565b6020808252600a90820152694f6e6c79206172656e6160b01b604082015260600190565b6020808252600d908201526c496e76616c696420737461746560981b604082015260600190565b60006020828403121561100957600080fd5b8151610f3f81610f0a565b634e487b7160e01b600052601160045260246000fd5b808202811582820484141761104157611041611014565b92915050565b60008261106457634e487b7160e01b600052601260045260246000fd5b500490565b8181038181111561104157611041611014565b634e487b7160e01b600052604160045260246000fd5b634e487b7160e01b600052603260045260246000fd5b6000600182016110ba576110ba611014565b5060010190565b6000604082018483526020604081850152818551808452606086019150828701935060005b81811015611102578451835293830193918301916001016110e6565b509097965050505050505056fea2646970667358221220022c0c137b8079962c51b242dda0feed6f7831115a1799cfac4cc19c38567aab64736f6c63430008130033","linkReferences":{}},"methodIdentifiers":{"agents(uint256)":"513856c8","arena()":"fd3705f9","challenge()":"d2ef7398","claimPrize()":"70740ac9","creator()":"02d05d3f","deadline()":"29dcb0cf","entryFee()":"072ea61c","getAgents()":"eac3fda4","getChallenge()":"759014f0","getState()":"1865c57d","getWinner()":"8e7ea5b2","hasClaimed(address)":"73b2e80e","registerAgent(address)":"306b9bb9","resolveBattle()":"9186156f","startBattle()":"240a2c97","state()":"c19d93fb","winner()":"dfbf53ae","winningAmount()":"98f22c12"},"id":22}