{"abi":[{"type":"constructor","inputs":[],"stateMutability":"nonpayable"},{"type":"function","name":"authorizeChallenge","inputs":[{"name":"challengeType","type":"address","internalType":"address"}],"outputs":[],"stateMutability":"nonpayable"},{"type":"function","name":"authorizedChallenges","inputs":[{"name":"","type":"address","internalType":"address"}],"outputs":[{"name":"","type":"bool","internalType":"bool"}],"stateMutability":"view"},{"type":"function","name":"deployChallenge","inputs":[{"name":"challengeType","type":"address","internalType":"address"}],"outputs":[{"name":"","type":"address","internalType":"address"}],"stateMutability":"nonpayable"},{"type":"function","name":"owner","inputs":[],"outputs":[{"name":"","type":"address","internalType":"address"}],"stateMutability":"view"},{"type":"function","name":"setOwner","inputs":[{"name":"newOwner","type":"address","internalType":"address"}],"outputs":[],"stateMutability":"nonpayable"},{"type":"event","name":"ChallengeDeployed","inputs":[{"name":"challengeType","type":"address","indexed":true,"internalType":"address"},{"name":"instance","type":"address","indexed":true,"internalType":"address"}],"anonymous":false}],"bytecode":{"object":"0x608060405234801561001057600080fd5b50600080546001600160a01b031916331790556107eb806100326000396000f3fe608060405234801561001057600080fd5b50600436106100575760003560e01c806313af40351461005c5780636721e8e8146100715780638da5cb5b146100a95780639bb806c4146100d4578063d80d8cba146100e7575b600080fd5b61006f61006a366004610316565b6100fa565b005b61009461007f366004610316565b60016020526000908152604090205460ff1681565b60405190151581526020015b60405180910390f35b6000546100bc906001600160a01b031681565b6040516001600160a01b0390911681526020016100a0565b6100bc6100e2366004610316565b610168565b61006f6100f5366004610316565b61029b565b6000546001600160a01b031633146101465760405162461bcd60e51b815260206004820152600a60248201526927b7363c9037bbb732b960b11b60448201526064015b60405180910390fd5b600080546001600160a01b0319166001600160a01b0392909216919091179055565b6001600160a01b03811660009081526001602052604081205460ff166101d05760405162461bcd60e51b815260206004820152601860248201527f4368616c6c656e6765206e6f7420617574686f72697a65640000000000000000604482015260640161013d565b60006000196001600160a01b03841601610214576040516101f090610309565b604051809103906000f08015801561020c573d6000803e3d6000fd5b509050610255565b60405162461bcd60e51b8152602060048201526016602482015275556e6b6e6f776e206368616c6c656e6765207479706560501b604482015260640161013d565b806001600160a01b0316836001600160a01b03167fbe099bcc1a1457aefe830cc3873c27e2ace425de5409368e242714a24722af1560405160405180910390a392915050565b6000546001600160a01b031633146102e25760405162461bcd60e51b815260206004820152600a60248201526927b7363c9037bbb732b960b11b604482015260640161013d565b6001600160a01b03166000908152600160208190526040909120805460ff19169091179055565b61046f8061034783390190565b60006020828403121561032857600080fd5b81356001600160a01b038116811461033f57600080fd5b939250505056fe60a060405234801561001057600080fd5b50600160805260805161043f610030600039600060dd015261043f6000f3fe6080604052600436106100745760003560e01c8063853828b61161004e578063853828b61461017e578063af34efb714610195578063d0e30db0146101cb578063ec18154e146101d357600080fd5b806319cae462146100cb57806327e235e3146101165780637c16650e1461015157600080fd5b366100c6573460008082825461008a91906103ad565b909155505060405134815233907f543ba50a5eec5e6178218e364b1d0f396157b3c8fa278522c2cb7fd99407d4749060200160405180910390a2005b600080fd5b3480156100d757600080fd5b506100ff7f000000000000000000000000000000000000000000000000000000000000000081565b60405160ff90911681526020015b60405180910390f35b34801561012257600080fd5b506101436101313660046103c6565b60026020526000908152604090205481565b60405190815260200161010d565b34801561015d57600080fd5b5061014361016c3660046103c6565b60016020526000908152604090205481565b34801561018a57600080fd5b506101936101e9565b005b3480156101a157600080fd5b506101436101b03660046103c6565b6001600160a01b031660009081526001602052604090205490565b610193610324565b3480156101df57600080fd5b5061014360005481565b33600090815260026020526040902054806102385760405162461bcd60e51b815260206004820152600a6024820152694e6f2062616c616e636560b01b60448201526064015b60405180910390fd5b604051600090339083908381818185875af1925050503d806000811461027a576040519150601f19603f3d011682016040523d82523d6000602084013e61027f565b606091505b50509050806102c25760405162461bcd60e51b815260206004820152600f60248201526e151c985b9cd9995c8819985a5b1959608a1b604482015260640161022f565b336000908152600260205260408120819055805483919081906102e69084906103f6565b909155505060405182815233907fffb3558b23f780f54b443e238f8b8cde524dbf6a73da7ce2562e2da3c2d3b5e29060200160405180910390a25050565b33600090815260026020526040812080543492906103439084906103ad565b925050819055503460008082825461035b91906103ad565b909155505060405134815233907f543ba50a5eec5e6178218e364b1d0f396157b3c8fa278522c2cb7fd99407d4749060200160405180910390a2565b634e487b7160e01b600052601160045260246000fd5b808201808211156103c0576103c0610397565b92915050565b6000602082840312156103d857600080fd5b81356001600160a01b03811681146103ef57600080fd5b9392505050565b818103818111156103c0576103c061039756fea26469706673582212203248ee94eca0cd9c50ec047a74511355f6af44c3b9b578257a830a83189c84f264736f6c63430008130033a264697066735822122071874b07db344b5a859b16b6f7b7cef42543144b5293628b314d2d47a8158ce764736f6c63430008130033","linkReferences":{}},"methodIdentifiers":{"authorizeChallenge(address)":"d80d8cba","authorizedChallenges(address)":"6721e8e8","deployChallenge(address)":"9bb806c4","owner()":"8da5cb5b","setOwner(address)":"13af4035"},"id":23}