{"abi":[{"type":"constructor","inputs":[{"name":"_arena","type":"address","internalType":"address"}],"stateMutability":"nonpayable"},{"type":"receive","stateMutability":"payable"},{"type":"function","name":"arena","inputs":[],"outputs":[{"name":"","type":"address","internalType":"address"}],"stateMutability":"view"},{"type":"function","name":"battleAgents","inputs":[{"name":"","type":"uint256","internalType":"uint256"},{"name":"","type":"uint256","internalType":"uint256"}],"outputs":[{"name":"","type":"address","internalType":"address"}],"stateMutability":"view"},{"type":"function","name":"battles","inputs":[{"name":"","type":"uint256","internalType":"uint256"}],"outputs":[{"name":"startTime","type":"uint256","internalType":"uint256"},{"name":"resolved","type":"bool","internalType":"bool"},{"name":"winningAgentIndex","type":"uint256","internalType":"uint256"}],"stateMutability":"view"},{"type":"function","name":"bets","inputs":[{"name":"","type":"uint256","internalType":"uint256"},{"name":"","type":"uint256","internalType":"uint256"},{"name":"","type":"address","internalType":"address"}],"outputs":[{"name":"amount","type":"uint256","internalType":"uint256"},{"name":"claimed","type":"bool","internalType":"bool"}],"stateMutability":"view"},{"type":"function","name":"calculatePayout","inputs":[{"name":"battleId","type":"uint256","internalType":"uint256"},{"name":"agentIndex","type":"uint256","internalType":"uint256"},{"name":"betAmount","type":"uint256","internalType":"uint256"}],"outputs":[{"name":"","type":"uint256","internalType":"uint256"}],"stateMutability":"view"},{"type":"function","name":"claimPayout","inputs":[{"name":"battleId","type":"uint256","internalType":"uint256"}],"outputs":[],"stateMutability":"nonpayable"},{"type":"function","name":"getOdds","inputs":[{"name":"battleId","type":"uint256","internalType":"uint256"},{"name":"agentIndex","type":"uint256","internalType":"uint256"}],"outputs":[{"name":"","type":"uint256","internalType":"uint256"}],"stateMutability":"view"},{"type":"function","name":"paused","inputs":[],"outputs":[{"name":"","type":"bool","internalType":"bool"}],"stateMutability":"view"},{"type":"function","name":"placeBet","inputs":[{"name":"battleId","type":"uint256","internalType":"uint256"},{"name":"agentIndex","type":"uint256","internalType":"uint256"}],"outputs":[],"stateMutability":"payable"},{"type":"function","name":"registerBattle","inputs":[{"name":"battleId","type":"uint256","internalType":"uint256"},{"name":"agents","type":"address[]","internalType":"address[]"},{"name":"startTime","type":"uint256","internalType":"uint256"}],"outputs":[],"stateMutability":"nonpayable"},{"type":"function","name":"resolveBets","inputs":[{"name":"battleId","type":"uint256","internalType":"uint256"},{"name":"winningAgentIndex","type":"uint256","internalType":"uint256"}],"outputs":[],"stateMutability":"nonpayable"},{"type":"function","name":"setPaused","inputs":[{"name":"_paused","type":"bool","internalType":"bool"}],"outputs":[],"stateMutability":"nonpayable"},{"type":"function","name":"totalPool","inputs":[{"name":"","type":"uint256","internalType":"uint256"}],"outputs":[{"name":"","type":"uint256","internalType":"uint256"}],"stateMutability":"view"},{"type":"function","name":"totalWageredPerAgent","inputs":[{"name":"","type":"uint256","internalType":"uint256"},{"name":"","type":"uint256","internalType":"uint256"}],"outputs":[{"name":"","type":"uint256","internalType":"uint256"}],"stateMutability":"view"},{"type":"event","name":"BattleRegistered","inputs":[{"name":"battleId","type":"uint256","indexed":true,"internalType":"uint256"},{"name":"agents","type":"address[]","indexed":false,"internalType":"address[]"}],"anonymous":false},{"type":"event","name":"BetClaimed","inputs":[{"name":"battleId","type":"uint256","indexed":true,"internalType":"uint256"},{"name":"bettor","type":"address","indexed":true,"internalType":"address"},{"name":"payout","type":"uint256","indexed":false,"internalType":"uint256"}],"anonymous":false},{"type":"event","name":"BetPlaced","inputs":[{"name":"battleId","type":"uint256","indexed":true,"internalType":"uint256"},{"name":"bettor","type":"address","indexed":true,"internalType":"address"},{"name":"agentIndex","type":"uint256","indexed":false,"internalType":"uint256"},{"name":"amount","type":"uint256","indexed":false,"internalType":"uint256"}],"anonymous":false}],"bytecode":{"object":"0x608060405234801561001057600080fd5b50604051610f52380380610f5283398101604081905261002f91610054565b600580546001600160a01b0319166001600160a01b0392909216919091179055610084565b60006020828403121561006657600080fd5b81516001600160a01b038116811461007d57600080fd5b9392505050565b610ebf806100936000396000f3fe6080604052600436106100e15760003560e01c80638a69614e1161007f578063bb84b80111610059578063bb84b801146102d3578063d1f8774b1461030b578063e3eed5c914610338578063fd3705f91461035857600080fd5b80638a69614e146102735780638fe651be146102935780639e4cdb4b146102b357600080fd5b80634afe62b5116100bb5780634afe62b51461017a5780634b2f63e61461018d5780635c975abb146101e8578063606d2e961461021957600080fd5b80630caee2ca146100ed57806316c38b3c146101205780633b04b6901461014257600080fd5b366100e857005b600080fd5b3480156100f957600080fd5b5061010d610108366004610c45565b610378565b6040519081526020015b60405180910390f35b34801561012c57600080fd5b5061014061013b366004610c71565b6103ea565b005b34801561014e57600080fd5b5061010d61015d366004610c93565b600260209081526000928352604080842090915290825290205481565b610140610188366004610c93565b61043b565b34801561019957600080fd5b506101d36101a8366004610cd1565b6001602081815260009485526040808620825293855283852090529083529120805491015460ff1682565b60408051928352901515602083015201610117565b3480156101f457600080fd5b5060055461020990600160a01b900460ff1681565b6040519015158152602001610117565b34801561022557600080fd5b50610258610234366004610d06565b600060208190529081526040902080546001820154600290920154909160ff169083565b60408051938452911515602084015290820152606001610117565b34801561027f57600080fd5b5061014061028e366004610d06565b61068e565b34801561029f57600080fd5b506101406102ae366004610c93565b6108c8565b3480156102bf57600080fd5b506101406102ce366004610d1f565b610a12565b3480156102df57600080fd5b506102f36102ee366004610c93565b610b33565b6040516001600160a01b039091168152602001610117565b34801561031757600080fd5b5061010d610326366004610d06565b60036020526000908152604090205481565b34801561034457600080fd5b5061010d610353366004610c93565b610b6b565b34801561036457600080fd5b506005546102f3906001600160a01b031681565b60008381526002602090815260408083208584529091528120548082036103a35760009150506103e3565b6000858152600360205260408120546103bd908390610dba565b9050816103ca8286610dcd565b6103d49190610de4565b6103de9085610e06565b925050505b9392505050565b6005546001600160a01b0316331461041d5760405162461bcd60e51b815260040161041490610e19565b60405180910390fd5b60058054911515600160a01b0260ff60a01b19909216919091179055565b600554600160a01b900460ff16156104875760405162461bcd60e51b815260206004820152600f60248201526e10dbdb9d1c9858dd081c185d5cd959608a1b6044820152606401610414565b600034116104ce5760405162461bcd60e51b8152602060048201526014602482015273426574206d75737420626520706f73697469766560601b6044820152606401610414565b6000828152602081905260409020546105215760405162461bcd60e51b815260206004820152601560248201527410985d1d1b19481b9bdd081c9959da5cdd195c9959605a1b6044820152606401610414565b600082815260208190526040902054421061056f5760405162461bcd60e51b815260206004820152600e60248201526d10985d1d1b19481cdd185c9d195960921b6044820152606401610414565b60008281526004602052604090205481106105c25760405162461bcd60e51b8152602060048201526013602482015272092dcecc2d8d2c840c2cecadce840d2dcc8caf606b1b6044820152606401610414565b6000828152600160209081526040808320848452825280832033845290915281208054909134918391906105f7908490610e06565b9091555050600083815260026020908152604080832085845290915281208054349290610625908490610e06565b909155505060008381526003602052604081208054349290610648908490610e06565b909155505060408051838152346020820152339185917f1b8a9031cb9351278d70a994f81536e9e08c91162e64f92b2fe4766fb7a891b4910160405180910390a3505050565b600554600160a01b900460ff16156106da5760405162461bcd60e51b815260206004820152600f60248201526e10dbdb9d1c9858dd081c185d5cd959608a1b6044820152606401610414565b6000818152602081905260409020600181015460ff166107325760405162461bcd60e51b815260206004820152601360248201527210985d1d1b19481b9bdd081c995cdbdb1d9959606a1b6044820152606401610414565b600281015460008381526001602090815260408083208484528252808320338452909152902080546107965760405162461bcd60e51b815260206004820152600d60248201526c139bc818995d081c1b1858d959609a1b6044820152606401610414565b600181015460ff16156107dd5760405162461bcd60e51b815260206004820152600f60248201526e105b1c9958591e4818db185a5b5959608a1b6044820152606401610414565b60006107ee85848460000154610378565b6001838101805460ff19169091179055604051909150600090339083908381818185875af1925050503d8060008114610843576040519150601f19603f3d011682016040523d82523d6000602084013e610848565b606091505b50509050806108895760405162461bcd60e51b815260206004820152600d60248201526c14185e5bdd5d0819985a5b1959609a1b6044820152606401610414565b604051828152339087907fad65ef4ba28f4ce1aaee7e8f86645eb4ce0ddc8b6c8fa2821564a94dbd2485fe9060200160405180910390a3505050505050565b6005546001600160a01b031633146108f25760405162461bcd60e51b815260040161041490610e19565b6000828152602081905260409020546109455760405162461bcd60e51b815260206004820152601560248201527410985d1d1b19481b9bdd081c9959da5cdd195c9959605a1b6044820152606401610414565b60008281526020819052604090206001015460ff161561099a5760405162461bcd60e51b815260206004820152601060248201526f105b1c9958591e481c995cdbdb1d995960821b6044820152606401610414565b60008281526004602052604090205481106109ed5760405162461bcd60e51b8152602060048201526013602482015272092dcecc2d8d2c840c2cecadce840d2dcc8caf606b1b6044820152606401610414565b6000918252602082905260409091206001818101805460ff1916909117905560020155565b6005546001600160a01b03163314610a3c5760405162461bcd60e51b815260040161041490610e19565b60008481526020819052604090205415610a985760405162461bcd60e51b815260206004820152601960248201527f426174746c6520616c72656164792072656769737465726564000000000000006044820152606401610414565b604080516060810182528281526000602080830182815283850183815289845283835285842094518555905160018501805460ff191691151591909117905551600290930192909255600490915220610af2908484610bcd565b50837fb52741caf5c2b4af82872f90bba50e394a8d8ca005636a49ed0d6572a08fe1208484604051610b25929190610e3d565b60405180910390a250505050565b60046020528160005260406000208181548110610b4f57600080fd5b6000918252602090912001546001600160a01b03169150829050565b6000828152600260209081526040808320848452909152812054808203610b96576000915050610bc7565b6000848152600360205260409020548190610bb990670de0b6b3a7640000610dcd565b610bc39190610de4565b9150505b92915050565b828054828255906000526020600020908101928215610c20579160200282015b82811115610c205781546001600160a01b0319166001600160a01b03843516178255602090920191600190910190610bed565b50610c2c929150610c30565b5090565b5b80821115610c2c5760008155600101610c31565b600080600060608486031215610c5a57600080fd5b505081359360208301359350604090920135919050565b600060208284031215610c8357600080fd5b813580151581146103e357600080fd5b60008060408385031215610ca657600080fd5b50508035926020909101359150565b80356001600160a01b0381168114610ccc57600080fd5b919050565b600080600060608486031215610ce657600080fd5b8335925060208401359150610cfd60408501610cb5565b90509250925092565b600060208284031215610d1857600080fd5b5035919050565b60008060008060608587031215610d3557600080fd5b84359350602085013567ffffffffffffffff80821115610d5457600080fd5b818701915087601f830112610d6857600080fd5b813581811115610d7757600080fd5b8860208260051b8501011115610d8c57600080fd5b95986020929092019750949560400135945092505050565b634e487b7160e01b600052601160045260246000fd5b81810381811115610bc757610bc7610da4565b8082028115828204841417610bc757610bc7610da4565b600082610e0157634e487b7160e01b600052601260045260246000fd5b500490565b80820180821115610bc757610bc7610da4565b6020808252600a90820152694f6e6c79206172656e6160b01b604082015260600190565b60208082528181018390526000908460408401835b86811015610e7e576001600160a01b03610e6b84610cb5565b1682529183019190830190600101610e52565b50969550505050505056fea2646970667358221220f9d57e8b522a61be87e12e05e4f45cd57491e9878f8bb5faa9c504ff5dee96d664736f6c63430008130033","linkReferences":{}},"methodIdentifiers":{"arena()":"fd3705f9","battleAgents(uint256,uint256)":"bb84b801","battles(uint256)":"606d2e96","bets(uint256,uint256,address)":"4b2f63e6","calculatePayout(uint256,uint256,uint256)":"0caee2ca","claimPayout(uint256)":"8a69614e","getOdds(uint256,uint256)":"e3eed5c9","paused()":"5c975abb","placeBet(uint256,uint256)":"4afe62b5","registerBattle(uint256,address[],uint256)":"9e4cdb4b","resolveBets(uint256,uint256)":"8fe651be","setPaused(bool)":"16c38b3c","totalPool(uint256)":"d1f8774b","totalWageredPerAgent(uint256,uint256)":"3b04b690"},"id":24}